:020000040800F2
:100000000000022099630008495E00084B5E00086A
:100010004D5E00084F5E0008515E000800000000C1
:10002000000000000000000000000000535E000817
:10003000555E000800000000575E0008595E000889
:10004000E9630008E9630008E9630008E963000860
:10005000E9630008E9630008E9630008E963000850
:10006000E9630008E9630008E9630008E963000840
:10007000E9630008E9630008E9630008E963000830
:10008000E9630008E9630008E9630008E963000820
:10009000E9630008E9630008E9630008E963000810
:1000A000E9630008E9630008E9630008E963000800
:1000B000E9630008E9630008E9630008E9630008F0
:1000C000E9630008E9630008E9630008E9630008E0
:1000D000E9630008E9630008E9630008E9630008D0
:1000E000E9630008E9630008E9630008E9630008C0
:1000F000E9630008E9630008E9630008E9630008B0
:10010000E9630008E9630008E9630008E96300089F
:10011000E9630008E9630008E9630008E96300088F
:10012000E9630008E9630008E9630008E96300087F
:10013000E9630008E9630008E9630008E96300086F
:10014000E9630008E9630008E9630008615E0008EC
:10015000E9630008E9630008E9630008E96300084F
:10016000E9630008E9630008E9630008E96300083F
:10017000E9630008E9630008E96300080000000083
:08018000E9630008E9630008CF
:1001900010B5054C237833B9044B13B10448AFF3C1
:1001A00000800123237010BD3403002000000000F4
:1001B0008C85000808B5034B1BB103490348AFF316
:1001C000008008BD00000000380300208C85000876
:1001D00081F0004102E000BF83F0004330B54FEAF8
:1001E00041044FEA430594EA050F08BF90EA020F65
:1001F0001FBF54EA000C55EA020C7FEA645C7FEAF8
:10020000655C00F0E2804FEA5454D4EB5555B8BF1A
:100210006D420CDD2C4480EA020281EA030382EA8B
:10022000000083EA010180EA020281EA0303362D1D
:1002300088BF30BD11F0004F4FEA01314FF4801CF0
:100240004CEA113102D0404261EB410113F0004F02
:100250004FEA03334CEA133302D0524263EB4303B9
:1002600094EA050F00F0A780A4F10104D5F1200E57
:100270000DDB02FA0EFC22FA05F2801841F10001B2
:1002800003FA0EF2801843FA05F359410EE0A5F186
:1002900020050EF1200E012A03FA0EFC28BF4CF0B7
:1002A000020C43FA05F3C01851EBE37101F000456D
:1002B00007D54FF0000EDCF1000C7EEB00006EEB7A
:1002C0000101B1F5801F1BD3B1F5001F0CD3490804
:1002D0005FEA30004FEA3C0C04F101044FEA44525B
:1002E00012F5800F80F09A80BCF1004F08BF5FEAE2
:1002F000500C50F1000041EB045141EA050130BDC2
:100300005FEA4C0C404141EB010111F4801FA4F164
:100310000104E9D191F0000F04BF01460020B1FAB9
:1003200081F308BF2033A3F10B03B3F120020CDAF1
:100330000C3208DD02F1140CC2F10C0201FA0CF0CF
:1003400021FA02F10CE002F11402D8BFC2F1200C34
:1003500001FA02F120FA0CFCDCBF41EA0C019040EA
:10036000E41AA2BF01EB0451294330BD6FEA040433
:100370001F3C1CDA0C340EDC04F11404C4F120021E
:1003800020FA04F001FA02F340EA030021FA04F330
:1003900045EA030130BDC4F10C04C4F1200220FA87
:1003A00002F001FA04F340EA0300294630BD21FAC5
:1003B00004F0294630BD94F0000F83F4801306BF8B
:1003C00081F480110134013D4EE77FEA645C18BF7F
:1003D0007FEA655C29D094EA050F08BF90EA020F16
:1003E00005D054EA000C04BF1946104630BD91EA0E
:1003F000030F1EBF0021002030BD5FEA545C05D111
:100400004000494128BF41F0004130BD14F580044F
:100410003CBF01F5801130BD01F0004545F0FE41C3
:1004200041F470014FF0000030BD7FEA645C1ABFF8
:10043000194610467FEA655C1CBF0B46024650EA2F
:10044000013406BF52EA033591EA030F41F400215B
:1004500030BD00BF90F0000F04BF0021704730B5E1
:100460004FF4806404F132044FF000054FF00001B6
:1004700050E700BF90F0000F04BF0021704730B577
:100480004FF4806404F1320410F0004548BF40424C
:100490004FF000013EE700BF42004FEAE2014FEAA1
:1004A00031014FEA02701FBF12F07F4393F07F4F7C
:1004B00081F06051704732F07F4208BF704793F07F
:1004C0007F4F04BF41F40021704730B54FF4607492
:1004D00001F0004521F000411CE700BF50EA010295
:1004E00008BF704730B54FF000050AE050EA01023E
:1004F00008BF704730B511F0004502D5404261EBAE
:1005000041014FF4806404F132045FEA915C3FF4EE
:10051000D8AE4FF003025FEADC0C18BF03325FEA8B
:10052000DC0C18BF033202EBDC02C2F1200300FA3C
:1005300003FC20FA02F001FA03FE40EA0E0021FA61
:1005400002F11444BDE600BF70B54FF0FF0C4CF44F
:10055000E06C1CEA11541DBF1CEA135594EA0C0F01
:1005600095EA0C0F00F0DEF82C4481EA030621EA3C
:100570004C5123EA4C5350EA013518BF52EA033577
:1005800041F4801143F4801338D0A0FB02CE4FF029
:100590000005E1FB02E506F00042E0FB03E54FF059
:1005A0000006E1FB03569CF0000F18BF4EF0010E51
:1005B000A4F1FF04B6F5007F64F5407404D25FEA4D
:1005C0004E0E6D4146EB060642EAC62141EA555100
:1005D0004FEAC52040EA5E504FEACE2EB4F1FD0C42
:1005E00088BFBCF5E06F1ED8BEF1004F08BF5FEAC0
:1005F000500E50F1000041EB045170BD06F0004672
:1006000046EA010140EA020081EA0301B4EB5C041E
:10061000C2BFD4EB0C0541EA045170BD41F4801116
:100620004FF0000E013C00F3AB8014F1360FDEBF3B
:10063000002001F0004170BDC4F10004203C35DA17
:100640000C341BDC04F11404C4F1200500FA05F39A
:1006500020FA04F001FA05F240EA020001F000423B
:1006600021F0004110EBD37021FA04F642EB0601B1
:100670005EEA430E08BF20EAD37070BDC4F10C04DB
:10068000C4F1200500FA04F320FA05F001FA04F29F
:1006900040EA020001F0004110EBD37041F100018B
:1006A0005EEA430E08BF20EAD37070BDC4F1200596
:1006B00000FA05F24EEA020E20FA04F301FA05F2FE
:1006C00043EA020321FA04F001F0004121FA04F2A6
:1006D00020EA020000EBD3705EEA430E08BF20EA76
:1006E000D37070BD94F0000F0FD101F000464000B0
:1006F00041EB010111F4801F08BF013CF7D041EA32
:10070000060195F0000F18BF704703F00046520035
:1007100043EB030313F4801F08BF013DF7D043EA06
:100720000603704794EA0C0F0CEA135518BF95EABC
:100730000C0F0CD050EA410618BF52EA4306D1D143
:1007400081EA030101F000414FF0000070BD50EA62
:10075000410606BF1046194652EA430619D094EAEC
:100760000C0F02D150EA013613D195EA0C0F05D1D6
:1007700052EA03361CBF104619460AD181EA03012A
:1007800001F0004141F0FE4141F470014FF00000E2
:1007900070BD41F0FE4141F4780170BD70B54FF07D
:1007A000FF0C4CF4E06C1CEA11541DBF1CEA1355FD
:1007B00094EA0C0F95EA0C0F00F0A7F8A4EB0504DF
:1007C00081EA030E52EA03354FEA013100F08880D6
:1007D0004FEA03334FF0805545EA131343EA12639F
:1007E0004FEA022245EA111545EA10654FEA002654
:1007F0000EF000419D4208BF964244F1FD0404F50D
:10080000407402D25B084FEA3202B61A65EB030568
:100810005B084FEA32024FF480104FF4002CB6EB25
:10082000020E75EB030E22BFB61A754640EA0C00A5
:100830005B084FEA3202B6EB020E75EB030E22BFE5
:10084000B61A754640EA5C005B084FEA3202B6EB26
:10085000020E75EB030E22BFB61A754640EA9C00E5
:100860005B084FEA3202B6EB020E75EB030E22BFB5
:10087000B61A754640EADC0055EA060E18D04FEA73
:10088000051545EA16754FEA06164FEAC30343EA13
:1008900052734FEAC2025FEA1C1CC0D111F4801FE0
:1008A0000BD141EA00014FF000004FF0004CB6E7D9
:1008B00011F4801F04BF01430020B4F1FD0C88BF78
:1008C000BCF5E06F3FF6AFAEB5EB030C04BFB6EB83
:1008D000020C5FEA500C50F1000041EB045170BD76
:1008E0000EF0004E4EEA113114EB5C04C2BFD4EBA3
:1008F0000C0541EA045170BD41F480114FF0000E27
:10090000013C90E645EA060E8DE60CEA135594EAA2
:100910000C0F08BF95EA0C0F3FF43BAF94EA0C0FA5
:100920000AD150EA01347FF434AF95EA0C0F7FF41A
:1009300025AF104619462CE795EA0C0F06D152EA6E
:1009400003353FF4FDAE1046194622E750EA410652
:1009500018BF52EA43067FF4C5AE50EA41047FF463
:100960000DAF52EA43057FF4EBAE12E74FF0FF3CC8
:1009700006E000BF4FF0010C02E000BF4FF0010C99
:100980004DF804CD4FEA410C7FEA6C5C4FEA430C12
:1009900018BF7FEA6C5C1BD001B050EA410C0CBF61
:1009A00052EA430C91EA030F02BF90EA020F0020C3
:1009B000704710F1000F91EA030F58BF994208BF2A
:1009C00090422CBFD8176FEAE37040F001007047E7
:1009D0004FEA410C7FEA6C5C02D150EA013C07D13E
:1009E0004FEA430C7FEA6C5CD6D152EA033CD3D089
:1009F0005DF8040B704700BF8446104662468C4683
:100A00001946634600E000BF01B5FFF7B7FF0028B5
:100A100048BF10F1000F01BD4DF808EDFFF7F4FFDE
:100A20000CBF012000205DF808FB00BF4DF808ED69
:100A3000FFF7EAFF34BF012000205DF808FB00BF8C
:100A40004DF808EDFFF7E0FF94BF012000205DF8AE
:100A500008FB00BF4DF808EDFFF7CEFF94BF012063
:100A600000205DF808FB00BF4DF808EDFFF7C4FF5C
:100A700034BF012000205DF808FB00BF4FEA4102AF
:100A8000B2F1E04324BFB3F5001CDCF1FE5C0DD9EC
:100A900001F0004C4FEAC0024CEA5070B2F1004F36
:100AA00040EB830008BF20F00100704711F0804F39
:100AB00021D113F13872BCBF01F00040704741F4FE
:100AC00080114FEA5252C2F11802C2F1200C10FA02
:100AD0000CF320FA02F018BF40F001004FEAC123E6
:100AE0004FEAD32303FA0CFC40EA0C0023FA02F38A
:100AF0004FEA4303CCE77FEA625307D150EA013360
:100B00001EBF4FF0FE4040F44000704701F000402F
:100B100040F0FE4040F40000704700BF53B94AB9AE
:100B2000002908BF00281CBF4FF0FF314FF0FF30F5
:100B300000F072B9ADF1080C6DE904CE00F006F8D2
:100B4000DDF804E0DDE9022304B070472DE9F04749
:100B5000089E04468846002B4BD18A42154667D929
:100B6000B2FA82F24AB1C2F1200701FA02F320FA86
:100B700007F7954047EA030894404FEA154E230CC7
:100B8000B8FBFEF71FFA85FC0EFB178843EA084303
:100B900007FB0CF1994209D9EB1807F1FF3080F0FF
:100BA0001B81994240F21881023F2B445B1AA4B288
:100BB000B3FBFEF00EFB103344EA034400FB0CFCD5
:100BC000A44509D92C1900F1FF3380F00781A44511
:100BD00040F2048102382C4440EA0740A4EB0C04A4
:100BE00000271EB1D4400023C6E900433946BDE8C2
:100BF000F0878B4209D9002E00F0EB800027C6E970
:100C0000000138463946BDE8F087B3FA83F7002F74
:100C100047D18B4202D3824200F2FA80841A61EB00
:100C2000030301209846002EE0D0C6E90048DDE726
:100C300002B9FFDEB2FA82F2002A40F08F80491B2F
:100C40004FEA154E1FFA85F80127B1FBFEFC230C75
:100C50000EFB1C1143EA014308FB0CF1994207D932
:100C6000EB180CF1FF3002D2994200F2CD8084469D
:100C7000591AA3B2B1FBFEF00EFB101443EA044470
:100C800008FB00F8A04507D92C1900F1FF3302D268
:100C9000A04500F2B6801846A4EB080440EA0C40D8
:100CA0009FE7C7F1200CBB4022FA0CFE4EEA030E70
:100CB00001FA07F420FA0CF521FA0CF34FEA1E486A
:100CC0002543B3FBF8F92C0C08FB19331FFA8EFAF5
:100CD00044EA034309FB0AF49C4202FA07F200FAD1
:100CE00007F10BD91EEB030309F1FF3080F0878079
:100CF0009C4240F28480A9F1020973441B1BADB2EF
:100D0000B3FBF8F008FB103345EA034400FB0AFA92
:100D1000A24508D91EEB040400F1FF336BD2A245B3
:100D200069D90238744440EA0940A0FB0289A4EB67
:100D30000A044C45C2464B4654D351D0002E69D0CC
:100D4000B1EB0A0564EB030404FA0CFCFD40FC4023
:100D50004CEA0505C6E90054002747E7C2F1200325
:100D600020FA03F7954001FA02F021FA03F34FEA63
:100D7000154E3843010CB3FBFEF71FFA85F80EFB46
:100D8000173341EA034107FB08F38B4204FA02F4EC
:100D900007D9691807F1FF3C2FD28B422DD9023FAA
:100DA0002944CB1A81B2B3FBFEF00EFB103341EAAB
:100DB000034100FB08F38B4207D9691800F1FF3C9F
:100DC00017D28B4215D902382944C91A40EA07477D
:100DD0003BE73746304609E70746E7E61846FBE6B5
:100DE0004145ABD2B8EB020A69EB0E02013813465B
:100DF000A4E76046E9E7184695E76746D1E78146EC
:100E00007CE702382C4447E7ACF1020C2B442FE777
:100E1000384608E73746E9E6704700BF034613F84F
:100E2000012B002AFBD1181A01387047000000007E
:100E300001F0FF01102A2BDB10F0070F08D010F88B
:100E4000013B013A8B422DD010F0070F42B3F6D18F
:100E5000F0B441EA012141EA014122F007047FF0A8
:100E600000070023F0E80256083C85EA010586EAFF
:100E7000010685FA47F5A3FA87F586FA47F6A5FA3B
:100E800087F68EB9EED1F0BC01F0FF0102F0070247
:100E900032B110F8013B013A83EA010313B1F8D1F2
:100EA0000020704701387047002D06BF35460338D3
:100EB000073815F0010F07D1013015F4807F02BF0C
:100EC000013015F4C03F0130F0BC0138704700BF5D
:100ED0004FEA410C7FEA6C5C02D150EA013C0AD136
:100EE0004FEA430C7FEA6C5C02D152EA033C02D128
:100EF0004FF0000070474FF0010070474FEA410289
:100F000012F5001215D211D56FF47873B3EB62525B
:100F100012D94FEAC12343F0004343EA505311F082
:100F2000004F23FA02F018BF404270474FF0000014
:100F3000704750EA013005D111F0004008BF6FF052
:100F4000004070474FF00000704700BF10B50446E6
:100F50000E4B18784FF47A73B3FBF0F30C4A106819
:100F6000B0FBF3F000F0AEFA68B90F2C01D9012004
:100F70000AE0002221464FF0FF3000F063FA034BF5
:100F80005C60002000E0012010BD00BF00000020D8
:100F90001801002008B50B4B1A6842F400721A6061
:100FA0001A6842F480621A601A6842F480721A6009
:100FB000032000F035FA0020FFF7C8FF04F024FFFB
:100FC000002008BD003C0240034A1168034B1B7817
:100FD0000B441360704700BF040500200000002090
:100FE000014B1868704700BF0405002038B504465F
:100FF000FFF7F6FF0546B4F1FF3F02D0044B1B7824
:101000001C44FFF7EDFF401BA042FAD338BD00BFE0
:1010100000000020494B5A6822F440325A605A6856
:1010200041680A435A600268536823F4807353602E
:1010300002685368016943EA0123536002685368F8
:1010400023F0407353600268536881680B43536018
:101050000268936823F40063936002689368C16830
:101060000B439360826A364B9A4249D00268936878
:1010700023F07063936002689368816A0B43936006
:101080000268936823F04053936002689368C16AD2
:101090000B4393600268936823F002039360026835
:1010A0009368816943EA41039360036A002B32D15C
:1010B0000268536823F4006353600268D36A23F420
:1010C0007003D3620168CB6AC269013A43EA0253F2
:1010D000CB620268936823F400739360026893689C
:1010E000016B43EA412393600268936823F48063B1
:1010F000936002689368416943EA81239360704773
:101100000268936823F0706393600268936823F029
:1011100040539360BEE70268536843F40063536032
:101120000268536823F46043536001684B68426A65
:10113000013A43EA42334B60BFE700BF002301405E
:101140000100000F30B310B50446036C43B1236CAB
:1011500013F0100F0AD00120002384F83C3010BD9A
:10116000436480F83C3003F041FDF0E7236C23F446
:10117000885323F0020343F0020323642046FFF761
:1011800049FF00206064236C23F0030343F0010354
:101190002364E1E70120704782B00023019390F8B7
:1011A0003C30012B63D0012380F83C3003689A68FF
:1011B00012F0010F13D19A6842F001029A60304B8D
:1011C0001B68304AA2FB03239B0C03EB43030193F0
:1011D00002E0019B013B0193019B002BF9D10268C6
:1011E000936813F0010F44D0036C23F4E06323F001
:1011F000010343F480730364536813F4806F05D0D4
:10120000036C23F4405343F480530364036C13F4DE
:10121000805F19D0436C23F006034364002380F8F9
:101220003C306FF022031360174B5B6813F01F0F05
:101230000DD103689A6812F0405F1DD19A6842F0A0
:1012400080429A60002015E000234364E6E70368CB
:101250000E4A934201D000200CE09A6812F0405FE1
:101260000CD19A6842F080429A60002002E002208D
:1012700000E0002002B070470020FBE70020F9E703
:101280001801002083DE1B430023014000200140A1
:1012900030B482B00023019390F83C30012B00F071
:1012A000B780012380F83C300B68092B3ED90568D4
:1012B000EA689BB203EB43031E3B072404FA03F3E3
:1012C00022EA0303EB600568EA688C680B8803EB8D
:1012D00043031E3B04FA03F31343EB604B68062BF6
:1012E0003AD805686A6B03EB8303053B1F2404FAB5
:1012F00003F322EA03036B6305686A6B4B6803EB35
:101300008303053B0C8804FA03F313436B63026801
:10131000404B9A4250D002683E4B9A4255D000232F
:1013200080F83C30184602B030BC704705682A6926
:101330009BB203EB4303072404FA03F322EA0303FB
:101340002B6105682A698C680B8803EB430304FA58
:1013500003F313432B61C1E70C2B16D805682A6BE6
:1013600003EB8303233B1F2404FA03F322EA030362
:101370002B6305682A6B4B6803EB8303233B0C88C4
:1013800004FA03F313432B63C1E70568EA6A03EB2E
:101390008303413B1F2404FA03F322EA0303EB62B5
:1013A0000568EA6A4B6803EB8303413B0C8804FA47
:1013B00003F31343EB62AAE70B68122BABD1164A77
:1013C000536843F480035360A5E70B68103B012B7F
:1013D000A5D8114A536843F4000353600B68102BDF
:1013E0009DD10E4B1B6802F1467202F52E3202F2BD
:1013F0008332A2FB03239B0C03EB83035A0001926D
:1014000002E0019B013B0193019B002BF9D186E790
:10141000022088E70020014000230140180100203D
:10142000074AD36823F4E0631B041B0C000200F49A
:10143000E060184340F0BF6040F40030D060704777
:1014400000ED00E030B4174BDB68C3F30223C3F1B7
:101450000704042C28BF04241D1D062D18D9033BA6
:101460004FF0FF3505FA04F421EA0401994005FA2A
:1014700003F322EA0303194300280BDB0901C9B275
:1014800000F1604000F5614080F8001330BC704707
:101490000023E5E700F00F000901C9B2024B19541F
:1014A000F4E700BF00ED00E014ED00E000F01F02E3
:1014B000400901239340024A42F82030704700BFA0
:1014C00000E100E00138B0F1807F0AD2064B58609D
:1014D000064AF02182F823100020986007221A6043
:1014E00070470120704700BF10E000E000ED00E011
:1014F00000230F2B00F2D780F0B482B039E007222E
:1015000000E00022B2403A430234674E46F82420FD
:10151000664A1468EA4302EA04064F6817F4803FFB
:1015200001D045EA0406614C2660646802EA0406BC
:101530004F6817F4003F01D045EA04065B4C666033
:10154000A46802EA04064F6817F4801F01D045EA38
:101550000406564CA660E46822404E6816F4001F4C
:1015600001D045EA0402514CE26001330F2B00F236
:10157000978001229A400C6804EA0205AA42F4D13D
:101580004C68022C01D0122C10D1DE08083650F81D
:1015900026C003F00704A7000F24BC402CEA040C6B
:1015A0000C69BC4044EA0C0440F8264004685F0023
:1015B0000326BE40F64306EA040C4C6804F003041C
:1015C000BC4044EA0C0404604C6804F1FF3CBCF1EC
:1015D000010F03D9112C01D0122C10D1846806EA16
:1015E000040CCC68BC4044EA0C048460446824EADF
:1015F00002024C68C4F300149C4014434460C26867
:1016000016408A68BA403243C2604A6812F0805F6E
:10161000ABD000220192264A546C44F480445464B6
:10162000526C02F480420192019A9C08A61C1E4A48
:1016300052F8267003F0030296000F22B24027EA08
:1016400002071C4A90423FF45CAF02F58062904270
:101650001AD002F58062904218D002F58062904262
:1016600016D002F58062904214D002F5806290425A
:1016700012D002F58062904210D002F58062904252
:101680003FF43DAF08223DE701223BE7022239E764
:10169000032237E7042235E7052233E7062231E744
:1016A00002B0F0BC7047704700380140003C014078
:1016B00000380240000002400369194201D10020B5
:1016C00070470120704712B9090481617047816138
:1016D000704743695940416170470000002800F09D
:1016E000828010B5044690F83D30002B41D0242371
:1016F00084F83D302268136823F00103136001F081
:1017000091FB3A4BA3FB00239B0C2268536061685A
:10171000374A914232D80133226813626368344AEF
:10172000934235D85B00B0FBF3F0C0F30B03032BFF
:1017300000D804202368D861E369216A22680B433A
:1017400013602369E16822680B4393606369A169B0
:1017500022680B43D3602268136843F001031360CF
:1017600000202064202384F83D30206384F83E006C
:1017700010BD80F83C3003F0A7FBB8E74FF4967239
:1017800002FB03F31B4AA2FB03239B090133C3E7BC
:10179000A16889B903EB4302B0FBF2F2C2F30B027A
:1017A000B2FA82F25209E2B991B903EB4303B0FBFA
:1017B000F3F040F40040BDE703EB830202EB82024A
:1017C000B0FBF2F2C2F30B02B2FA82F25209EAE77C
:1017D00003EB830303EB8303B0FBF3F040F44040DF
:1017E000A8E70120A6E70120704700BF83DE1B4366
:1017F000A0860100D34D6210704708B5436A9A1C59
:10180000426202681B88D360438D013B9BB24385D3
:10181000438D9BB203B108BD0268536823F0A00357
:101820001B041B0C5360012380F84130FFF7E4FFD9
:10183000F1E7704708B50368DA68C36A991CC162AA
:101840001A80438E013B9BB24386438E9BB203B109
:1018500008BD0268536823F060031B041B0C53602F
:10186000012380F84130FFF7E4FFF1E77047000003
:10187000002800F0BB8070B50446022580F8415076
:101880005B4B436303F076FB2268D36923F47B63ED
:1018900023F00F03D36123681D622368DD69636948
:1018A000022B5BD0E368002B3ED02026A368202BC0
:1018B00000D87600012001F06FFB2369B3F5007FAB
:1018C00034D0B0FBF6F000EB800043006269B3FB5C
:1018D000F2F30533474AA2FB0323DB0803F00102BE
:1018E0009B1AC3F34F0311029A1EFD2A38D82269AE
:1018F0000A43216813430B626268A168E068238B86
:1019000003439BB20B439BB213439BB243F400636C
:101910001D432368DD61236A012B2AD00020606407
:10192000012384F8413070BD1026BFE7E36853B14E
:10193000B600B0FBF6F000EB800043006269B3FB39
:10194000F2F30533C6E7F600B0FBF6F000EB8000DB
:1019500043006269B3FBF2F30533BBE70021C3E741
:10196000636C43F0100363642046FFF77FFF0120A0
:10197000D9E7214B63632268204B9A421ED04FF077
:101980004022D36923F47B6323F00F03D3612268E1
:101990001A4B9A4214D04FF0402302221A62226856
:1019A000164B9A420FD04FF04022D0696168B1F5D2
:1019B000007F0AD0C1B94FF4807608E0104AE0E712
:1019C000A3F58063E9E70E4AEFE74FF48076A1685C
:1019D000E568238B2B439BB20B439BB2334343F409
:1019E00000630343D36199E70026F0E701207047C5
:1019F000051A0008CDCCCCCC211C000800380040D2
:101A00000034004010B584B0044602689368039324
:101A100090F84130DBB2042B06D094F84130DBB2B1
:101A2000032B2ED004B010BD039B13F0010F03D085
:101A3000536813F0400F21D1039B13F0400FECD0FB
:101A400023685A6812F0200FE7D05A6822F060022B
:101A50001204120C5A60002301932368DA68019281
:101A60009B680193019B012384F84130636C43F030
:101A7000020363642046FFF7F9FECEE7FFF7DAFEC4
:101A8000DAE7039B13F0020F04D023685B6813F0BE
:101A9000800F1FD1039B13F0080FC3D023685A682F
:101AA00012F0200FBED05A6822F0A0021204120CCD
:101AB0005A600023029323689B680293029B0123D0
:101AC00084F84130636C43F0040363642046FFF7FD
:101AD000CDFEA7E72046FFF790FEDBE7704700004A
:101AE00008B5E9B9436A9A1C426202681B88D36050
:101AF000438D013B9BB24385438D9BB24BB902683A
:101B0000536823F0A0031B041B0C5360438E9BB24D
:101B100003B108BD012380F84130FFF7DFFFF8E78C
:101B2000436A9A1C42621A880168134B99421ED07C
:101B30004FF04023DA60438D013B9BB24385438DD8
:101B40009BB2002BE5D102680B4B9A4212D04FF0AA
:101B50004022536823F0A0035360438E9BB2002BB6
:101B6000D7D1012380F84130FFF7B8FFD1E7A3F5C3
:101B70008063DFE7014AECE70038004000340040B2
:101B800008B5E9B90368DA68C36A991CC1621A80AA
:101B9000438E013B9BB24386438E9BB24BB9026896
:101BA000536823F060031B041B0C5360438D9BB2EE
:101BB00003B108BD012380F84130FFF78FFFF8E73C
:101BC0000268154B9A4222D04FF04023DA68C36A6C
:101BD000991CC1621A80438E013B9BB24386438E9F
:101BE0009BB2002BE5D102680B4B9A4212D04FF00A
:101BF0004022536823F060035360438D9BB2002B57
:101C0000D7D1012380F84130FFF768FFD1E7A3F572
:101C10008063DBE7014AECE7003800400034004015
:101C200010B584B0044603689A6803927C4A9342D4
:101C30005DD04FF040218A680292DA6902F4407266
:101C4000B2F5007F04D0DA6912F4407F40F0818061
:101C5000039A12F0020F03D05B6813F0800F48D193
:101C6000029B13F0010F09D022686D4B9A4245D0B8
:101C70004FF040235B6813F0400F42D1029B13F0FA
:101C8000400F09D02268664B9A423FD04FF0402364
:101C90005A6812F0200F3CD1039B13F0080F24D098
:101CA00023685A6812F0200F1FD05A6822F0A00251
:101CB0001204120C5A602268594B9A4247D04FF0D6
:101CC0004022536823F0600353600023019323688C
:101CD0009B680193019B012384F84130636C43F0BE
:101CE000040363642046FFF7C1FD04B010BD4D49F5
:101CF000A1E700212046FFF7F3FEB1E7A3F58063DB
:101D0000B8E701212046FFF73BFFB7E7A3F5806363
:101D1000BEE75A6822F060025A602268536823F0D6
:101D2000A0031B041B0C5360002300932368DA6894
:101D300000929B680093009B012384F84130636C00
:101D400043F0020363642046FFF790FDA4E7354AA1
:101D5000B7E7029B13F0020F03D04B6813F0800F1C
:101D60004FD1039B13F0010F04D023685B6813F07D
:101D7000400F4BD1039B13F0400F1ED023685A68CD
:101D800012F0200F19D05A6822F060021204120CCF
:101D90005A602268224B9A423DD04FF0402253684D
:101DA00023F0A0035360012384F84130636C43F0B7
:101DB000020363642046FFF759FD029B13F0080FEE
:101DC00093D02268164B9A4227D04FF040235A688E
:101DD00012F0200F89D05A6822F0A0025A602268BF
:101DE000536823F060031B041B0C5360012384F829
:101DF0004130636C43F0040363642046FFF736FD13
:101E000073E701212046FFF76BFEAAE70021204679
:101E1000FFF7B6FEAEE7034AC1E7A3F58063D6E756
:101E200000380040003400402DE9F04383B00746FD
:101E30000D46D0F80080CA00521A93000344DE6CAD
:101E40001A6DB61A1B6C9E4200D91E4606F1030994
:101E50004FEA990915E006F103094FEA9909EB00E9
:101E60005B1B9C003C44616C3B7C0093B3B2EAB2C8
:101E7000404602F009F8636C33446364236D3344D5
:101E80002365414608EB451303F510639B699BB23C
:101E90004B4512D9EA00521B93003B441A6DDB6C90
:101EA0009A420AD24BB19E1AC5EBC50293003B443D
:101EB0001B6C9E42CFD91E46CDE73EB90123AB40F5
:101EC000D1F8345825EA0305C1F83458002003B08E
:101ED000BDE8F08300286BD0F0B58BB00446032337
:101EE00080F8B93304F088F8206801F018FC254622
:101EF00055F8107B6E460FCD0FC60FCD0FC695E877
:101F0000030086E80300231D0ECB384601F0C3FB17
:101F10000021206801F009FC002210E0D100891A9C
:101F20008B002344012183F8391083F83820DA87A5
:101F3000002183F83B1019645964D96401320E2AD8
:101F4000ECD9002218E0D100891A8B00234400212B
:101F500083F8F91183F8F821DA8783F8FB11C3F8C5
:101F60000012C3F80412C3F80C12236802F14000F7
:101F700003EB8003596001320E2AE4D9254655F857
:101F8000107B6E460FCD0FC60FCD0FC695E8030030
:101F900086E80300231D0ECB384601F0DDFB01234C
:101FA00084F8B933206802F01AF800200BB0F0BDB5
:101FB0000120704790F8B833012B0ED010B50446BD
:101FC000012380F8B833006801F0FDFF206801F0BC
:101FD000A0FB002084F8B80310BD02207047000069
:101FE0002DE9F04704460568284602F033F808B1A9
:101FF000BDE8F0870646206801F0FDFF0028F7D015
:10200000206801F0F8FF10F0020F04D02268536935
:1020100003F002035361206801F0EDFF10F4002F7C
:1020200075D13746206801F0E6FF10F4802F40F0AC
:10203000D280206801F0DFFF0028C0F23E812068D6
:1020400001F0D9FF10F4006F0AD0D5F8083813F06A
:10205000010F40F041812268536903F4006353612A
:10206000206801F0C8FF10F4805F40F039812068DB
:1020700001F0C1FF10F4005F40F08281206801F0A0
:10208000BAFF10F0100F14D02268936923F01003E8
:1020900093612E6A06F00F08C6F34343022B00F04B
:1020A0000382062B00F021822268936943F010031B
:1020B0009361206801F09FFF10F0080F40F0298223
:1020C000206801F098FF10F4801F40F02B822068F8
:1020D00001F091FF10F4001F40F02E82206801F003
:1020E0008AFF10F0804F40F03182206801F083FFBA
:1020F00010F0040F3FF47CAF23685D6815F0040F07
:1021000040F02D82226853682B43536070E72068AB
:1021100001F075FF8046374621E0F900C91B8A00AF
:102120002244D2F800121B69C3F31203C91AC2F881
:102130001012D2F80012D2F804320B44C2F8043262
:1021400028E019F0080F3DD119F0100F04D005EB6D
:1021500047131022C3F8082B01374FEA5808B8F18B
:10216000000F3FF45FAF18F0010FF5D05FFA87FA68
:102170005146206801F053FF814610F0010FE0D076
:1021800005EB47130122C3F8082B03F530632269DE
:10219000012AC2D05146204603F072FF2369012B69
:1021A000CFD1002FCDD1C7EBC70293002344D3F882
:1021B0000C32002BC5D104F56F720121206801F0AB
:1021C00069FFBEE7204603F053FF05EB47130822E3
:1021D000C3F8082BB8E7206801F019FF804637469E
:1021E0002EE0FA00D21B93002344196C5A6C0A4467
:1021F0005A6446E019F0080F04D005EB4713082293
:10220000C3F8082919F0100F04D005EB471310226A
:10221000C3F8082919F0400F04D005EB47134022FA
:10222000C3F8082919F0020F04D005EB4713022266
:10223000C3F8082919F0800F3AD101374FEA58083E
:10224000B8F1000F3FF4F5AE18F0010FF5D05FFACA
:1022500087FA5146206801F0EBFE814610F0010F2D
:10226000C8D0012202FA07F0D5F8343823EA000377
:10227000C5F8343805EB4713C3F80829236993429E
:10228000AFD05146204603F007FF2369012BB1D19F
:10229000002FAFD1C7EBC70293002344DB6C002BA8
:1022A000A8D104F56F720121206801F0F3FEA1E7C7
:1022B00039462046FFF7B8FDBFE7D5F8043823F0CC
:1022C0000103C5F80438204603F020FF2268536953
:1022D00003F000435361B2E6204603F0FFFEBAE686
:1022E000A94605F50068D8F8043023F00103C8F8C2
:1022F00004301021206801F0D7FA07E009EB4613FB
:10230000FF22C3F80829C3F8082B01366368B342DB
:10231000F4D84FF0FF33C8F81830D8F81C3043F029
:102320000113C8F81C30236BEBB1D8F8843043F0AC
:102330000B03C8F88430D8F8443043F00B03C8F8D6
:102340004430D5F8003823F4FE63C5F8003804F5AE
:102350006F72217C206801F09DFE2268536903F4AE
:102360008053536183E6D8F8143043F00B03C8F868
:102370001430D8F8103043F00B03C8F81030E0E701
:10238000206801F06BFE2268D36823F47053D36099
:10239000206801F0B6FA90B90023E3604FF40073AF
:1023A00063612268D36843F41053D360204603F07E
:1023B00084FE2268536903F4005353615EE60323ED
:1023C000E3604023636100F027FD674B0344674AE5
:1023D000934205D82268D36843F47053D360E5E78D
:1023E000634B0344634A934205D82268D36843F49D
:1023F0006053D360DAE7A0F57403A3F510535E4A87
:10240000934205D82268D36843F45053D360CDE794
:10241000A0F18373A3F5E743584A934205D8226895
:10242000D36843F44053D360C0E7554B0344554A47
:10243000934205D82268D36843F43053D360B5E79C
:10244000514B0344514A934205D82268D36843F460
:102450002053D360AAE74E4B03444E4A934205D81B
:102460002268D36843F41053D3609FE7A0F1B77399
:10247000A3F55853484A934205D82268D36843F4D9
:102480000053D36092E7454B0344454A934205D835
:102490002268D36843F4E053D36087E72268D368A7
:1024A00043F4C053D36081E747F6F0731E423FF414
:1024B000FBAD36094FEAC80AAAEB08034FEA8309C5
:1024C000A144C6F30A02D9F80412284601F0F0FC30
:1024D000C6F30A06D9F804323344C9F80432D9F8ED
:1024E00010321E44C9F81062DEE5082204F56F714F
:1024F000284601F0DDFCC6F30A164FEAC803A3EB39
:1025000008018A002244D2F810321E44C2F8106238
:10251000CAE5204603F0CBFD2268536903F00803A7
:102520005361CDE5F9B2204603F0FCFD2268536902
:1025300003F480135361CAE5F9B2204603F0ECFDC1
:102540002268536903F400135361C7E5204603F082
:10255000EFFD2268536903F080435361C5E52046CF
:1025600003F0ECFDCEE500BF405327FFFF340C0025
:10257000401E1BFF3F420F007F4F12001FD613006B
:1025800060B6E5FE5FE3160000D3CEFE3F771B008A
:10259000C05BB3FEBF9121001F753800E05459FEA7
:1025A000DF9C410090F8B833012B0BD010B50446E6
:1025B000012380F8B833006801F0F5FC002084F8AE
:1025C000B80310BD0220704770B54DB2002D22DB5C
:1025D00001F07F06C6EBC606B40004F5FC740444A3
:1025E00001F07F012170ED0F6570A260E37005B10D
:1025F000E180022B17D090F8B833012B16D0054696
:10260000012380F8B8332146006801F09AF90020D0
:1026100085F8B80370BD01F07F06C6EBC606B400AE
:1026200038340444DCE700232371E4E70220F1E7B7
:1026300010B54AB2002A1CDB01F07F04C4EBC404CD
:10264000A30003F5FC73034401F07F011970D20F5E
:102650005A7090F8B823012A13D00446012280F85A
:10266000B8231946006801F0B5F9002084F8B803D2
:1026700010BD01F07F04C4EBC404A300383303444D
:10268000E2E70220F4E770B501F07F06F500A91B30
:102690008C0004F5FC740119AD1BAC000444C4F8B3
:1026A0000422C4F80C320023C4F8103284F8F93143
:1026B00084F8F8610369012B06D066B1DAB20068CC
:1026C00001F000FA002070BDC6EBC605AC00044462
:1026D000C4F80822F1E7DAB2006801F025FBF1E75F
:1026E00001F00F01C1EBC1018B001844B0F81002DA
:1026F000704770B501F07F06F500A91B8C003834D7
:102700000119AD1BAC0004446264E364002323653B
:10271000012384F8393084F838600369012B06D02E
:102720005EB1DAB2006801F0CDF9002070BDC6EBF1
:10273000C605AC000444A264F2E7DAB2006801F016
:10274000F3FAF2E738B54AB2002A1DDBC1EBC10447
:10275000A30003F5FC73034401249C7001F07F0483
:102760001C70D20F5A7090F8B823012A1BD005466E
:10277000012280F8B8231946006801F0ADFB5CB176
:10278000002085F8B80338BD01F07F04C4EBC40411
:10279000A30038330344DFE705F56F72297C28680E
:1027A00001F078FCECE70220EDE710B54AB2002A10
:1027B0001CDBC1EBC104A30003F5FC73034400243C
:1027C0009C7001F07F011970D20F5A7090F8B823F5
:1027D000012A13D00446012280F8B8231946006864
:1027E00001F0ACFB002084F8B80310BD01F07F04B9
:1027F000C4EBC404A30038330344E0E70220F4E749
:1028000030B40468606A29B10D46A36A00EB134036
:1028100000230CE040EA0240A06212E003F1400114
:1028200004EB8101496800EB11400133DBB2691E02
:102830008B42F3DB40EA024005F13F0104EB8101EA
:102840004860002030BC7047036859620020704720
:10285000002800F0BB8170B582B00446036813F015
:10286000010F3BD0A74B9B6803F00C03042B2CD02B
:10287000A44B9B6803F00C03082B21D06368B3F5CD
:10288000803F4FD0B3F5A02F52D09E4B1A6822F450
:1028900080321A601A6822F480221A606368002B62
:1028A00050D0FEF79DFB0546964B1B6813F4003F86
:1028B00014D1FEF795FB401B6428F5D903208AE16B
:1028C000904B5B6813F4800FD8D08E4B1B6813F4C9
:1028D000003F03D06368002B00F07A81236813F077
:1028E000020F55D0874B9B6813F00C0F3ED0854BE1
:1028F0009B6803F00C03082B33D0E368002B68D0EF
:10290000814B01221A60FEF76BFB05467D4B1B686D
:1029100013F0020F54D1FEF763FB401B0228F5D9D8
:10292000032058E1774A136843F480331360B5E716
:10293000744B1A6842F480221A601A6842F480329A
:102940001A60ABE7FEF74CFB05466E4B1B6813F4B1
:10295000003FC3D0FEF744FB401B6428F5D9032099
:1029600039E1684B5B6813F4800FC6D1654B1B6877
:1029700013F0020F04D0E368012B01D001202AE1FB
:10298000604A136823F0F803216943EAC103136026
:10299000236813F0080F40D0636963B35B4B0122D7
:1029A0001A60FEF71DFB0546564B5B6F13F0020FD6
:1029B00033D1FEF715FB401B0228F5D903200AE1AD
:1029C000504A136823F0F803216943EAC1031360F6
:1029D000DEE74D4B00221A60FEF702FB0546494B2D
:1029E0001B6813F0020FD3D0FEF7FAFA401B02283F
:1029F000F5D90320EFE0454B00221A60FEF7F0FA0C
:102A00000546404B5B6F13F0020F06D0FEF7E8FA65
:102A1000401B0228F5D90320DDE0236813F0040FE2
:102A200079D0384B1B6C13F0805F33D100230193B6
:102A3000344B1A6C42F080521A641B6C03F08053C2
:102A40000193019B0125324B1B6813F4807F23D037
:102A5000A368012B34D0052B38D02A4B1A6F22F0F3
:102A600001021A671A6F22F004021A67A368002B8A
:102A700036D0FEF7B5FA0646224B1B6F13F0020F55
:102A800048D1FEF7ADFA801B41F288339842F3D962
:102A90000320A0E00025D6E71D4A136843F48073A5
:102AA0001360FEF79DFA0646194B1B6813F4807FEE
:102AB000CED1FEF795FA801B0228F5D903208AE0D3
:102AC000104A136F43F001031367CFE70D4B1A6FE2
:102AD00042F004021A671A6F42F001021A67C5E752
:102AE000FEF77EFA0646074B1B6F13F0020F11D05C
:102AF000FEF776FA801B41F288339842F3D903201F
:102B000069E000BF0038024000004742800E4742A3
:102B100000700040E5B9A369002B5BD0304A926891
:102B200002F00C02082A58D0022B17D02D4B00229D
:102B30001A60FEF755FA0446294B1B6813F0007F14
:102B400042D0FEF74DFA001B0228F5D9032042E0DF
:102B5000234A136C23F080531364DCE7214B0022DB
:102B60001A60FEF73DFA05461D4B1B6813F0007F07
:102B700006D0FEF735FA401B0228F5D903202AE0DB
:102B8000E369226A1343626A43EA8213A26A520823
:102B9000013A43EA0243E26A43EA0263104A53609D
:102BA000104B01221A60FEF71BFA04460C4B1B68FF
:102BB00013F0007F06D1FEF713FA001B0228F5D9A7
:102BC000032008E0002006E0002004E00120704718
:102BD000012000E0002002B070BD0120FBE700BF33
:102BE0000038024060004742324B9B6803F00C0300
:102BF000042B5CD0082B01D02F4870472DE9F04BF7
:102C00002C4B5A6802F03F025B6813F4800F2BD004
:102C1000284B5B68C3F388131E4600275C01002520
:102C2000E41A65EB0705A90141EA9461A001001BC4
:102C300061EB0501CB0043EA5073C400A01943EBDC
:102C400007014B0243EAD0534402204619460023B1
:102C5000FDF764FF174B5B68C3F3014301335B006F
:102C6000B0FBF3F0BDE8F08B124B5B68C3F3881345
:102C70001E4600275C010025E41A65EB0705A90143
:102C800041EA9461A001001B61EB0501CB0043EA1E
:102C90005073C400A01943EB07018B0243EA905321
:102CA0008402204619460023FDF738FFD2E7034887
:102CB000704700BF003802400024F40000127A0080
:102CC000002800F09D8070B504464F4B1B6803F050
:102CD0000F038B4209D2CBB24B4A1370136803F037
:102CE0000F038B4201D0012070BD236813F0020F47
:102CF00017D013F0040F04D0444A936843F4E05310
:102D00009360236813F0080F04D0404A936843F49B
:102D1000604393603D4A936823F0F003A068034347
:102D200093600D46236813F0010F32D06368012BC6
:102D300021D09A1E012A25D9344A126812F0020FB6
:102D400060D032498A6822F0030213438B60FEF799
:102D500047F906462D4B9B6803F00C036268B3EB02
:102D6000820F16D0FEF73CF9801B41F2883398425F
:102D7000F0D90320B8E7254A126812F4003FE0D1E9
:102D80000120B1E7214A126812F0007FD9D1012059
:102D9000AAE71D4B1B6803F00F03AB4209D9EAB247
:102DA000194B1A701B6803F00F03AB4201D00120CE
:102DB0009AE7236813F0040F06D0144A936823F4AB
:102DC000E053E1680B439360236813F0080F07D0CA
:102DD0000E4A936823F46043216943EAC103936078
:102DE000FFF702FF094B9B68C3F30313084AD35C48
:102DF000D840084B18600020FEF7A8F8002073E7C1
:102E00000120704701206FE7003C0240003802407B
:102E1000AC85000818010020014B1868704700BFFE
:102E20001801002008B5FFF7F7FF044B9B68C3F3B8
:102E30008223034AD35CD84008BD00BF003802405B
:102E4000BC85000830B583B00446036813F0050F55
:102E500006D1236813F0020F2ED1002003B030BD3D
:102E6000494B00221A60FEF7BBF80546474B1B682A
:102E700013F0006F06D0FEF7B3F8401B0228F5D917
:102E80000320EBE76268A3681B0743EA82133F4A0B
:102E9000C2F884303C4B01221A60FEF7A1F80546C7
:102EA0003A4B1B6813F0006FD3D1FEF799F8401B23
:102EB0000228F5D90320D1E700230193334B1A6C84
:102EC00042F080521A641B6C03F080530193019B03
:102ED0002F4A136843F480731360FEF781F80546A8
:102EE0002B4B1B6813F4807F06D1FEF779F8401B4B
:102EF0000228F5D90320B1E7244B1B6F13F440736C
:102F000012D0E26802F440729A420DD01F4B1A6F41
:102F100022F440721F4901200860002008601A67EF
:102F20001B6F13F0010F13D1E36803F44072B2F585
:102F3000407F1ED0154A936823F4F8139360134919
:102F40000B6FE268C2F30B0213430B67002085E7A7
:102F5000FEF746F805460D4B1B6F13F0020FE3D149
:102F6000FEF73EF8401B41F288339842F3D9032024
:102F700074E706498A6822F4F81223F0704323F4B8
:102F8000407313438B60DAE7680047420038024021
:102F900000700040400E474201282AD1174B9B6821
:102FA00013F4000303D0012B25D115487047134BB0
:102FB0005B6813F4800F14D0104B5B6803F03F0381
:102FC0001048B0FBF3F00D4AD2F88430C3F38813F5
:102FD00000FB03F0D2F88430C3F30273B0FBF3F0CC
:102FE0007047064B5B6803F03F030748B0FBF3F004
:102FF000E9E7002070470020704700BF003802401A
:103000000080BB0000127A000024F400F8B50546E9
:103010000F4616461C463BE02CB1FDF7E1FF069B30
:10302000C01AA04234D32A68536823F0E0035360E7
:103030006B68B3F5827F0BD0AB6AB3F5005F14D039
:10304000012385F85130002385F85030032027E014
:10305000AB68B3F5004F02D0B3F5806FECD12A68AE
:10306000136823F040031360E6E72A68136823F42B
:1030700000531B041B0C13602A68136843F40053AD
:103080001360DDE70123B34209D0B4F1FF3FC3D1A0
:103090002B689B6837EA0303F4D00023F3E7002092
:1030A000F8BD10B582B0044600920B460022802184
:1030B000FFF7ACFF034610B9184602B010BD636DB0
:1030C00043F0200363650323F6E700283BD010B5E7
:1030D00004460023836290F85130002B2ED0022347
:1030E00084F851302268136823F04003136063684A
:1030F000A2681343E26813432269134362691343CE
:10310000A26902F400721343E2691343226A134373
:10311000A16A22680B431360638B03F00403616AA6
:1031200022680B4353602268D36923F40063D361A0
:1031300000206065012384F8513010BD80F85030C4
:1031400002F000FECBE7012070472DE9F04184B08A
:103150001E4690F85030012B00F0C88004460D4602
:103160009046012380F85030FDF73AFF074694F867
:103170005130DBB2012B0AD00223012284F8512006
:10318000002284F85020184604B0BDE8F081002DDC
:1031900000F0A480B8F1000F00F0A280032384F8AF
:1031A0005130002363652563A4F83480A4F8368089
:1031B000A363A387E38763642364A368B3F5004F25
:1031C0001BD023681A6812F0400F03D11A6842F02E
:1031D00040021A60E368B3F5006F14D063681BB156
:1031E000E38E9BB2012B3ED1236815F8012B1A7395
:1031F000E38E013B9BB2E38635E02268136843F41B
:1032000080431360DDE763681BB1E38E9BB2012B43
:103210000DD1236835F8022BDA60E38E013B9BB2B7
:10322000E38604E0002E5DD0B6F1FF3F0FD1E38EC0
:103230009BB27BB323689A6812F0020FF2D035F884
:10324000022BDA60E38E013B9BB2E386EFE7FDF7EA
:10325000C7FEC01BB042EAD303238EE7002E43D043
:10326000B6F1FF3F0FD1E38E9BB29BB123689A6802
:1032700012F0020FF2D015F8012B1A73E38E013B06
:103280009BB2E386EFE7FDF7ABFEC01BB042EAD38B
:10329000032372E700973346012202212046FFF7FD
:1032A000B5FE08B1032368E73A4631462046FFF7EA
:1032B000F8FE034618B12023636501235DE7A26889
:1032C00032B903922268D168039192680392039AFB
:1032D000626D002A3FF451AF01234EE701234CE712
:1032E00001234AE7032348E7032346E702234AE78B
:1032F0002DE9F04385B099460C9D90F85030012B94
:1033000000F0108104460F461646012380F8503025
:10331000FDF766FE804694F85130DBB26268012BFF
:1033200015D0B2F5827F0AD00223012284F8512001
:10333000002284F85020184605B0BDE8F083A2684A
:10334000002A40F0E780042B01D00223EDE7002F94
:1033500000F0E280002E00F0E180B9F1000F00F0F3
:10336000DF8094F85130DBB2012B2BD00023636552
:10337000A663A4F83E90A4F83C902763A4F8369086
:10338000A4F834902364636423681A6812F0400F31
:1033900003D11A6842F040021A60E368B3F5006F87
:1033A00014D063681BB1E38E9BB2012B07D1236855
:1033B00017F8012B1A73E38E013B9BB2E3864FF0A3
:1033C000010961E0052384F85130CFE763681BB140
:1033D000E38E9BB2012B07D1236837F8022BDA600A
:1033E000E38E013B9BB2E3864FF0010913E0E38FCC
:1033F0009BB26BB123689A6812F0010F08D0DB68AA
:1034000026F8023BE38F013B9BB2E3874FF00109B3
:10341000B5F1FF3F1CD1E38E9BB21BB9E38F9BB28A
:10342000002B55D0B9F1000FE1D0E38E9BB2002BF9
:10343000DDD023689A6812F0020FD8D037F8022B3B
:10344000DA60E38E013B9BB2E3864FF00009CEE7E2
:10345000FDF7C6FDA0EB0800A842DCD3032364E718
:10346000E38F9BB26BB123689A6812F0010F08D00A
:10347000DB683370E38F013B9BB2E38701364FF08B
:103480000109B5F1FF3F1BD1E38E9BB213B9E38F66
:103490009BB2EBB1B9F1000FE2D0E38E9BB2002BEF
:1034A000DED023689A6812F0020FD9D03A781A73E6
:1034B000E38E013B9BB2E38601374FF00009CFE773
:1034C000FDF78EFDA0EB0800A842DDD303232CE717
:1034D000CDF800802B46012202212046FFF796FD01
:1034E00008B1032321E7424629462046FFF7D9FDCC
:1034F000034618B120236365012316E7A268002A5A
:103500007FF413AF03922268D1680391926803920B
:10351000039A0AE7022308E7012306E7012304E7E9
:10352000012302E7022306E72DE9F04182B00446B9
:103530000D4617461E464368B3F5827F19D094F8AE
:103540005030012B00F0A280012384F85030FDF7A9
:1035500047FD804694F85130DBB2012B15D0022094
:10356000012384F85130002384F8503002B0BDE8C4
:10357000F0818368002BE2D1042380F8513000965B
:1035800013460A46FFF7B4FEF0E7002D74D0002F73
:1035900074D0042384F8513000236365A563A787A2
:1035A000E7872363A386E38623646364A368B3F594
:1035B000004F0BD023681A6812F0400F03D11A682D
:1035C00042F040021A60E3685BB128E022681368A9
:1035D00023F480431360EDE7002E51D0B6F1FF3F96
:1035E00010D1E38F9BB2002B31D023689A6812F080
:1035F000010FF1D01B7B05F8013BE38F013B9BB230
:10360000E387EEE7FDF7ECFCA0EB0800B042E8D35F
:103610000320A5E7002E35D0B6F1FF3F0FD1E38F91
:103620009BB2A3B123689A6812F0010FF2D0DB6855
:1036300025F8023BE38F013B9BB2E387EFE7FDF701
:10364000CFFCA0EB0800B042E9D3032088E7636811
:10365000B3F5827F03D0636DB3B9002080E7A36820
:10366000B3F5004F02D0B3F5806FF4D12268136830
:1036700023F040031360EEE7012071E701206FE7BC
:1036800003206DE703206BE7012069E702206DE767
:1036900090F85100704784B010B5044603A880E844
:1036A0000E00089B012B20D1A36B23F48033A3636E
:1036B000E36823F4840323F04003E360E36823F426
:1036C0004013E3600F9B012B0AD0204600F006FD5B
:1036D000069B012B14D00020BDE8104004B07047B9
:1036E000E36843F48013E360EFE7E36843F04003EB
:1036F000E360204600F0F2FC4FF48033A363E7E779
:10370000A36843F00603A360A36843F02003A3600B
:10371000E1E7836843F0010383600020704783681A
:1037200023F0010383600020704708B5C36823F0CD
:10373000C043C360012909D019B9C36843F080436D
:10374000C3603220FDF752FC002008BDC36843F07F
:103750000053C360F5E7000084B0F8B5044607A83D
:1037600080E80E00119FBFB9A36B43F40013A3635D
:1037700025460023C4F8003E04F50066D4F800385E
:10378000C4F800380C9B012B10D1099B4BB90021C8
:10379000204600F0AFF80DE0A36B43F40023A363D1
:1037A000E6E70121204600F0A5F803E003212046CA
:1037B00000F0A0F81021204600F076F8204600F036
:1037C00087F80023336173614FF0FF32B261F36118
:1037D00008E04FF09040C2F8000900220A61FF2281
:1037E0008A600133079999420BD905EB431202F520
:1037F0001061D2F800090028EBDB0020C2F80009B4
:10380000EBE7002308E04FF0904CC2F800CB002219
:103810000261FF228260013399420DD905EB431208
:1038200002F53060D2F800CBBCF1000FEBDB4FF0BB
:10383000000CC2F800CBEAE7336923F480733361EC
:103840000A9B012B1AD00022A2616FF080426261B4
:103850001BB9A36943F01003A361A269104B134382
:10386000A3610D9B1BB1A36943F00803A361012F62
:103870000ED00020BDE8F84004B07047094A32631A
:10388000326B42F4803242F003023263326BDAE789
:10389000A36943F0804343F00403A361E9E700BF59
:1038A00000383C8000018000890141F02001016165
:1038B00000230133054A934205D8026912F0200F14
:1038C000F7D1002070470320704700BF400D030070
:1038D0001023036100230133054A934205D802698E
:1038E00012F0100FF7D1002070470320704700BF7F
:1038F000400D0300D0F800381943C0F8001800202C
:103900007047D0F8083800F5006013F0060F10D0AB
:10391000836803F00603022B0DD0836803F00603CF
:10392000062B0AD0836803F00603042B07D000207F
:103930007047002070470320704703207047022023
:10394000704730B44B78012B22D0D0F81C380D785A
:103950000122AA4043EA0243C0F81C380B7800EB6E
:103960004310D0F8003B13F4004F0ED1D0F8003BC9
:103970008A68C2F30A02C97842EA8142134343F0DB
:10398000805343F40043C0F8003B002030BC704734
:10399000D0F81C280D78AB409BB21343C0F81C38FC
:1039A0000C7800EB4410D0F8003913F4004FECD140
:1039B000D0F800398A68C2F30A02C97842EA814223
:1039C00042EA8452134343F0805343F40043C0F867
:1039D0000039DAE738B54B78012B36D00B7804463E
:1039E00000EB4313D3F8002B22F40042C3F8002B62
:1039F0000B7800EB43134FF00062C3F8002B0B78F9
:103A000000EB43134FF08042C3F8002B0022013239
:103A10002B4B9A4252D80B7804EB431303F53063D7
:103A20009B6813F0100FF2D1D0F8043843F4806390
:103A3000C0F80438D0F81C38097801228A4023EAFB
:103A40000243C0F81C38002038BD0B78044600EB58
:103A50004313D3F8002922F40042C3F800290B785D
:103A600000EB43134FF00062C3F800290B7800EB22
:103A700043134FF08042C3F8002900220132104B5B
:103A80009A4219D80B7804EB431303F510639B6833
:103A900013F0804FF2D10D4604461021FFF704FFCA
:103AA000D4F81C28297801238B409BB222EA030317
:103AB000C4F81C380020C7E70320C5E70320C3E78C
:103AC000400D030070B582B04B78012B3ED00B78CF
:103AD00000EB4313D3F8104BE40CE404C3F8104B91
:103AE0000B7800EB4313D3F8104B24F0FF5424F46D
:103AF000C014C3F8104B4B69002B40F0D4800B78F6
:103B000000EB4313D3F8104B8D68C5F312052C431B
:103B1000C3F8104B0B7800EB4313D3F8104B44F46D
:103B20000024C3F8104B012A00F0DC80CB78012B75
:103B300000F0DF800B7800EB4310D0F8003B43F03F
:103B40000443C0F8003B002002B070BD4B696BBB62
:103B50000B7800EB4313D3F8104924F0FF5424F4FE
:103B6000C014C3F810490B7800EB4313D3F8104985
:103B700044F40024C3F810490B7800EB4313D3F846
:103B80001049E40CE404C3F81049012A54D0CB785E
:103B9000012B57D04B69002B54D0D0F834380E7815
:103BA0000124B4402343C0F834384BE00B7800EBD9
:103BB0004313D3F81049E40CE404C3F810490B781C
:103BC00000EB4313D3F8104924F0FF5424F4C0143D
:103BD000C3F810490C7800EB4414D4F810594B6921
:103BE0008E683344013BB3FBF6F34E4E06EAC34303
:103BF0002B43C4F810390B7800EB4313D3F810496A
:103C00004D69C5F312052C43C3F81049CB78012B3D
:103C1000BBD10B7800EB4313D3F8104924F0C04418
:103C2000C3F810490B7800EB4313D3F8104944F064
:103C30000054C3F81049A8E70B7800EB43130C6954
:103C4000C3F81449CB78012B14D00B7800EB431345
:103C5000D3F8004944F00444C3F80049CB78012B61
:103C60007FF471AF14468B8A0A78C968009400F01B
:103C70000BF968E7D0F8083813F4807F09D10B7886
:103C800000EB4313D3F8004944F00054C3F8004953
:103C9000DBE70B7800EB4313D3F8004944F0805482
:103CA000C3F80049D1E78C682344013BB3FBF4F32C
:103CB0000C7800EB4414D4F8105B1A4E06EAC346A5
:103CC0003543C4F8105B0C7800EB4414D4F8106B47
:103CD0008D689BB205FB03F5C5F312053543C4F8A7
:103CE000105B20E7CA680B7800EB4313C3F8142B72
:103CF0001CE7D0F8083813F4807F09D10B7800EB6B
:103D00004313D3F8002B42F00052C3F8002B11E705
:103D10000B7800EB4313D3F8002B42F08052C3F82A
:103D2000002B07E70000F81F30B44B78012B39D087
:103D30000B7800EB4313D3F8104BE40CE404C3F806
:103D4000104B0B7800EB4313D3F8104B24F0FF54C7
:103D500024F4C014C3F8104B4B690BB18B684B6152
:103D60000B7800EB4313D3F8104B44F40024C3F852
:103D7000104B0B7800EB4313D3F8104B8D68C5F351
:103D800012052C43C3F8104B012A76D00B7800EBB8
:103D90004310D0F8003B43F00443C0F8003B002040
:103DA00030BC70474B699BBB0B7800EB4313D3F8D7
:103DB000104924F0FF5424F4C014C3F810490B78C0
:103DC00000EB4313D3F8104944F40024C3F810491E
:103DD0000B7800EB4313D3F81049E40CE404C3F868
:103DE00010490B7800EB4313D3F8004944F0044426
:103DF000C3F80049012A39D04B69002BCFD0D0F845
:103E00003438097801228A401343C0F83438C6E7B1
:103E10000B7800EB4313D3F81049E40CE404C3F827
:103E200010490B7800EB4313D3F8104924F0FF54EA
:103E300024F4C014C3F810494C698B689C4200D923
:103E40004B610B7800EB4313D3F8104944F4002482
:103E5000C3F810490B7800EB4313D3F810494D69B0
:103E6000C5F312052C43C3F81049BAE70B7800EBF1
:103E700043100B69C0F8143991E7CA680B7800EB5E
:103E80004313C3F8142B81E770B49DF80C4064B958
:103E900003339D0807E000EB023303F5805351F82C
:103EA000046B1E600134AC42F5D3002070BC704737
:103EB00003329208002393420CD210B400F58054D0
:103EC000246841F8044B01339342F7D308465DF868
:103ED000044B7047084670474B78012B17D00B787E
:103EE00000EB4313D3F8002B002A05DBD3F8002B9B
:103EF00022F08042C3F8002B0B7800EB4310D0F87F
:103F0000003B43F40013C0F8003B002070470B78DF
:103F100000EB4313D3F80029002A05DBD3F800296E
:103F200022F08042C3F800290B7800EB4310D0F850
:103F3000003943F40013C0F80039E6E74B78012B51
:103F40000FD00B7800EB4313D3F8002B22F40012B0
:103F5000C3F8002BCB78023BDBB2012B19D9002030
:103F600070470B7800EB4313D3F8002922F40012BA
:103F7000C3F80029CB78023BDBB2012BEFD80B78DA
:103F800000EB4310D0F8003943F08053C0F80039FB
:103F9000E5E70B7800EB4310D0F8003B43F080538B
:103FA000C0F8003BDBE7D0F8003823F4FE63C0F82C
:103FB0000038D0F80038090101F4FE610B43C0F865
:103FC00000380020704708B5D0F8043823F0020309
:103FD000C0F804380320FDF709F8002008BD08B533
:103FE000D0F8043843F00203C0F804380320FCF78B
:103FF000FDFF002008BD4269806910407047D0F87D
:10400000183800F50060C0691840000C7047D0F8FF
:10401000183800F50060C069184080B2704700EBA6
:104020004111D1F8082B00F500604069104070473D
:1040300010B4D0F81048D0F83438CB40DB01DBB2F4
:10404000234300EB411000F51060806818405DF8D4
:10405000044B7047406900F001007047D0F8003908
:1040600023F4FF6323F00703C0F8003900F5006371
:104070009A6802F00602042A05D05A6842F4807257
:104080005A6000207047D0F8002942F00302C0F8BF
:104090000029F2E710B40024C0F8104BD0F8104B00
:1040A00044F40024C0F8104BD0F8104B44F018042E
:1040B000C0F8104BD0F8104B44F0C044C0F8104B7F
:1040C000012903D000205DF8044B7047C0F8142B81
:1040D0004FF08023C0F8003BF4E7000000230133D9
:1040E0000C4A934211D80269002AF8DA036943F0B6
:1040F0000103036100230133064A934207D8026992
:1041000012F0010FF7D10020704703207047032001
:10411000704700BF400D0300D0F818321BB10020DB
:10412000C3F8140270470220704710B5D0F8184247
:10413000D0F81C325BB194F80002FF2807D09B68CE
:1041400094F8012221469847FF2384F8003200208A
:1041500010BD000043230380004870470800002082
:1041600043230380004870474C0000204323038012
:1041700000487047900000200A23038000487047E1
:10418000D400002038B50446D0F8185202F09CF84C
:10419000C5F80C02D4F818324BB1D4F81C32DB68E5
:1041A00005F50371D5F804029847002038BD0220B8
:1041B000FCE7000070B505460C46D0F818620B7895
:1041C00013F0600225D0202A07D1CA883AB9D0F866
:1041D0001C329B68002248789847002070BD13F07D
:1041E000800F0BD0D0F81C329B683146607898471E
:1041F000E2883146284600F081FCEEE74B7886F8ED
:104200000032CB8886F80132CA88314600F08BFC38
:10421000E3E74B780A2BE0D10122024900F06EFC63
:10422000DBE700BF5003002010B50446812101F0F8
:10423000E0FF0121204601F0DCFF8221204601F051
:10424000D8FFD4F8183253B1D4F81C325B689847C1
:10425000D4F8180202F048F90023C4F818320020FC
:1042600010BD38B50446037C73BB4FF400730222C3
:10427000812101F0ADFF4FF400730222012120469D
:1042800001F0A6FF082303228221204601F0A0FFAF
:104290004FF4077002F020F90546C4F8180248B33D
:1042A000D4F81C321B6898470023C5F81432C5F8AF
:1042B0001832237CA3B14023D5F8042201212046E3
:1042C00001F0F4FF002038BD40230222812101F0DB
:1042D0007FFF402302220121204601F079FFD1E730
:1042E0004FF40073D5F804220121204601F0DEFFCF
:1042F0000020E8E70120E6E719B1C0F81C12002011
:10430000704702207047D0F81832C3F80812C3F87B
:10431000102200207047D0F81832C3F80412002091
:104320007047D0F818228AB108B5D2F814320BB110
:10433000012008BD0123C2F81432B2F81032D2F8BD
:104340000822812101F0A4FF0020F2E7022070473B
:10435000D0F818229AB108B5037C3BB14023D2F8BB
:104360000422012101F0A2FF002008BD4FF40073D8
:10437000D2F80422012101F099FF0020F5E7022084
:10438000704798B108B50346D0F8140210B1002068
:10439000C3F8140209B1C3F810121846012380F8BB
:1043A000FC31027001F0D0FE002008BD02207047F1
:1043B00019B1C0F81412002070470220704708B5E8
:1043C00001F0F8FE002008BD08B5D0F8143233B172
:1043D0001B68984708B9002008BD0220FCE70220AE
:1043E000FAE708B5D0F814325B689847002008BD9A
:1043F00038B5044600F50275284600F01DF9012382
:10440000C4F8F431B4F80E32C4F8F83194F8081254
:1044100001F01F03012B0ED03BB1022B10D001F095
:104420008001204601F0F3FE03E02946204600F01B
:104430007CFA002038BD2946204600F09AFAF8E7B9
:104440002946204600F0B1FAF3E710B5044621BB37
:104450001346D0F8F421032A01D0002010BDD0F873
:104460000C11D0F8102191420CD8D0F814321B69ED
:1044700023B190F8FC21032A00D19847204600F090
:1044800069FBEAE7891AC0F80C118A4228BF0A467C
:1044900092B2194600F056FBDFE70A46D0F8143214
:1044A0009B69002BD9D090F8FC110329D5D1114676
:1044B0009847D2E710B50446002946D11346D0F8F4
:1044C000F421022A05D094F80032012B39D00020C3
:1044D00010BDC169026A914219D88169B1FBF2F33A
:1044E00002FB13132BB98A4203D8D0F8F831994252
:1044F0001AD3D4F81432DB682BB194F8FC21032AC8
:1045000001D120469847204600F02FFBDBE78A1AAE
:10451000C26192B2194600F0FEFA00231A4619460B
:10452000204601F0C3FECEE70022114600F0F3FA68
:104530000021C4F8F8110B460A46204601F0B6FEE9
:10454000C1E7002384F80032C1E70A46D0F81432EC
:104550005B69002BBBD090F8FC110329B7D1114641
:104560009847B4E738B5044640230022114601F0CD
:104570002FFE4025C4F810512B46002280212046F2
:1045800001F026FE2562012384F8FC31D4F81832AC
:104590002BB1D4F814325B6821792046984700206B
:1045A00038BD01740020704790F8FC3180F8FD316F
:1045B000042380F8FC310020704790F8FD3180F82A
:1045C000FC310020704708B590F8FC31032B01D076
:1045D000002008BDD0F81432DB69002BF8D09847D2
:1045E000F6E700207047002070470020704708B5AC
:1045F000012280F8FC21D0F81422526801799047FA
:10460000002008BD002302E00133DBB20130027854
:10461000002AF9D1184670474B88012B0BD110B5F1
:104620000446C0F80432D0F814329B6898472046FC
:1046300000F090FA10BD70470B7803704B78437010
:104640008B78CA7803EB022343800B794A7903EB1A
:10465000022383808B79CA7903EB0223C3807047DE
:1046600010B50446802101F0D2FD0021204601F062
:10467000CEFD10BD30B583B004460D464A88130AFE
:10468000013B062B00F28180DFE803F00413277F53
:104690007F637000D0F810321B680DF10601007CBA
:1046A0009847BDF8062012B1EB88002B71D103B0FA
:1046B00030BD037C43B9D0F814329B6A0DF106007B
:1046C000984702234370ECE7D0F81432DB6A0DF10F
:1046D0000600984702234370E3E7D2B2052A34D894
:1046E000DFE802F0030B131B232BD0F810325B68BA
:1046F0000DF10601007C9847D3E7D0F810329B6893
:104700000DF10601007C9847CBE7D0F81032DB684A
:104710000DF10601007C9847C3E7D0F810321B6901
:104720000DF10601007C9847BBE7D0F810325B69B9
:104730000DF10601007C9847B3E7D0F810329B6971
:104740000DF10601007C9847ABE72946FFF788FF8B
:10475000ADE7037C33B9D0F814325B6B0DF1060082
:1047600098479EE72946FFF77BFFA0E7037C43B904
:10477000D0F814321B6B0DF10600984707234370E5
:104780008FE72946FFF76CFF91E72946FFF768FF9F
:104790008DE79A4228BF1A46ADF80620014620460A
:1047A00000F0ACF983E738B504468B88E3B9CB88D1
:1047B000D3B98D7805F07F0590F8FC31032B0CD030
:1047C00080F8FE51294601F055FD204600F0C2F95F
:1047D00035B1022384F8FC3109E0FFF741FF06E020
:1047E000012384F8FC3102E02046FFF739FF38BD91
:1047F00038B504460D468978254B1970012909D82A
:1048000090F8FC31022B09D0032B1CD02946FFF76E
:1048100027FF02E02946FFF723FF38BD81B1416041
:10482000032380F8FC31FFF7CFFD022803D0204698
:1048300000F090F9F1E729462046FFF711FFECE779
:1048400000F088F9E9E789B1436899421DD0D9B2EF
:10485000FFF7C7FD0E4B197861602046FFF7B4FDE6
:1048600002280DD0204600F075F9D6E7022380F823
:10487000FC314160FFF7B5FD204600F06BF9CCE755
:1048800029462046FFF7ECFEC7E700F063F9C4E7CE
:104890005103002008B5CB88012B08D190F8FC31DA
:1048A000022B07D0032B0DD0FFF7DAFE01E0FFF754
:1048B000D7FE08BD0146002341F8083F012200F061
:1048C0001DF9F6E70122011D00F018F9F1E708B51E
:1048D00090F8FC31023B012B0CD80123C360D0F8C7
:1048E00004320BB10323C360022200F10C0100F07B
:1048F00005F908BDFFF7B4FEFBE710B5044690F8D4
:10490000FC31023B012B0DD84B88012B09D1002330
:10491000C0F80432D0F814329B689847204600F063
:1049200019F910BDFFF79CFEFBE708B54B78092B82
:104930001CD8DFE803F012181B151B09051B0F0C10
:10494000FFF798FE002008BDFFF72DFFFAE7FFF7FD
:104950004FFFF7E7FFF79EFFF4E7FFF7B8FFF1E738
:10496000FFF75AFEEEE7FFF7C8FFEBE7FFF778FE29
:10497000E8E738B504460D4690F8FC31032B11D119
:104980000B79012B0BD8D0F814329B689847EB8831
:104990000BB1002038BD204600F0DCF8F9E7FFF746
:1049A0005FFEF6E7FFF75CFEF3E738B505460C4619
:1049B0008A880B7803F06003202B05D1D0F81432DD
:1049C0009B689847002038BDD1B26378012B25D071
:1049D000002B47D0032BF5D190F8FC31022B05D0EA
:1049E000032B0AD02146FFF73BFEEBE70029E9D075
:1049F0008029E7D001F00BFCE4E7638823B919B103
:104A0000802901D001F003FCD5F814329B682146BF
:104A100028469847284600F09DF8D3E790F8FC31E7
:104A2000022B05D0032B0AD02146FFF719FEC9E758
:104A30000029C7D08029C5D001F0E9FBC2E763880F
:104A4000002BBFD111F07F0F03D1284600F082F870
:104A5000B8E701F0EAFBD5F814329B6821462846F6
:104A60009847F2E790F8FC31022B05D0032B09D0D0
:104A70002146FFF7F5FDA5E711F07F0FA2D001F069
:104A8000C6FB9FE712F0800F11D101F07F041034B4
:104A900000EB04140434284601F0D5FB70B1012367
:104AA000236002222146284600F028F88AE701F018
:104AB0007F04013400EB04140434ECE7002323608A
:104AC000EFE7D0B170B50D4616460446FFF79AFDE4
:104AD0000130400080B23080287003236B700223C5
:104AE00007E001345A1CD2B2E9540233DBB2002190
:104AF000A95421780029F4D170BD704710B5134630
:104B00000222C0F8F4218361C3610A46002101F04A
:104B1000BFFB002010BD08B513460A46002101F076
:104B2000B7FB002008BD10B513460322C0F8F421DE
:104B3000C0F80831C0F80C310A46002101F0B6FB7C
:104B4000002010BD08B513460A46002101F0AEFB57
:104B5000002008BD08B50423C0F8F43100231A462C
:104B6000194601F095FB002008BD08B50523C0F8E3
:104B7000F43100231A46194601F098FB002008BDC5
:104B800000B585B00023009301930293039314486A
:104B9000144A02604FF48032426083600122026155
:104BA00082610362C36210498162C360C2610263B1
:104BB0004361FCF7C7FA68B90C2300930123019302
:104BC0000023029369460648FCF762FB28B905B04A
:104BD0005DF804FB00F0AEFAEEE700F0ABFAF6E7A2
:104BE00008050020002001400100000F00B589B039
:104BF000002303930493059306930793026803F13C
:104C0000804303F590339A4202D009B05DF804FB6B
:104C10000021019103F58C335A6C42F480725A647E
:104C20005A6C02F480720192019A02911A6B42F05E
:104C300004021A631B6B03F004030293029B042318
:104C400003930323049303A90148FCF751FCDCE719
:104C5000000802400E4BDA6822F08072DA60DA68EF
:104C600042F08072DA600B4B1A6822F001021A607F
:104C70001A6842F001021A6000225A6000BF00BFA9
:104C800000BF5B680BB9012070471046704700BF3A
:104C9000F0ED00E0001000E008B59FED020A00F022
:104CA0008BFF08BD0000FE412DE9F04F8DB00024C0
:104CB0000794089409940A940B9401946C4B1A6B12
:104CC00042F010021A631A6B02F010020192019A6C
:104CD00002941A6B42F004021A631A6B02F0040287
:104CE0000292029A03941A6B42F080021A631A6BC2
:104CF00002F080020392039A04941A6B42F00102BC
:104D00001A631A6B02F001020492049A05941A6B5A
:104D100042F002021A631A6B02F002020592059A2F
:104D200006941A6B42F008021A631B6B03F0080327
:104D30000693069B4F4E224608213046FCF7C3FCE3
:104D4000DFF84091012211464846FCF7BCFC2246A0
:104D500004214948FCF7B7FC484F22464FF48051E4
:104D60003846FCF7B0FC22464FF610714448FCF779
:104D7000AAFC4FF00808CDF81C800125089509947D
:104D80000A9407A93046FCF7B3FB079508950994E8
:104D90000A9407A94846FCF7ABFBCDF81C804FF0FE
:104DA0000208CDF8208009940A944FF0050ACDF846
:104DB0002CA007A94846FCF79BFB0795DFF8C89095
:104DC000CDF82090099407A92B48FCF791FB4FF0F0
:104DD000040BCDF81CB0089509940A9407A926483D
:104DE000FCF786FBCDF81CB00894099407A9384657
:104DF000FCF77EFB4FF4804307930894099407A9BE
:104E00003046FCF775FB4FF480630793CDF82080A4
:104E100009940A94CDF82CA007A93846FCF768FB42
:104E20004FF480530793089509940A9407A93846CC
:104E3000FCF75EFB4FF610730793089509940A94EC
:104E400007A90F48FCF754FB202307930894099403
:104E500007A90B48FCF74CFBCDF81C80CDF820903F
:104E6000099407A93046FCF743FB0DB0BDE8F08F6D
:104E700000380240001002400000024000040240DE
:104E8000000C0240000802400000121008B50B4858
:104E90000B4B03600B4B436000238360C3604FF4F4
:104EA0008042026143618361C3610362FCF716FCC7
:104EB00000B908BD00F03EF9FBE700BF5C0500202B
:104EC00000540040A086010030B589B00023039350
:104ED00004930593069307930268144B9A4201D0FA
:104EE00009B030BD00250195114C236B43F002033E
:104EF0002363236B03F002030193019B4FF41073B0
:104F0000039312230493012305930423079303A916
:104F10000848FCF7EDFA0295236C43F40013236470
:104F2000236C03F400130293029BD9E70054004062
:104F3000003802400004024008B50B480B4B0360E8
:104F40004FF40072426000238360C3600261084A2C
:104F500042618361C3610362FCF78AFC00B908BD4A
:104F600000F0E8F8FBE700BFB0050020003C00407F
:104F70000077010070B588B0002303930493059374
:104F80000693079302681E4B9A4201D008B070BD89
:104F90000024009403F5FE331A6C42F400421A64B4
:104FA0001A6C02F400420092009A01941A6B42F0CB
:104FB00001021A631A6B02F001020192019A029433
:104FC0001A6B42F004021A631B6B03F00403029392
:104FD000029B10230393022604960625079503A936
:104FE0000848FCF785FA4FF4A453039304960594FC
:104FF0000694079503A90448FCF77AFAC6E700BFB0
:10500000003C0040000002400008024070B598B02B
:10501000302200210DEB020001F06EFA002407940B
:10502000089409940A940B940394049405940694A8
:105030000194204B1A6C42F080521A641B6C03F0EE
:1050400080530193019B02941B4B1A6842F48042E7
:105050001A601B6803F480430293029B01260C969E
:105060004FF480330D93022512954FF48003139370
:10507000082314934FF4A8731593169507231793D9
:105080000CA8FDF7E5FB0F230793089509944FF44F
:10509000A0530A934FF480530B93052107A8FDF703
:1050A0000FFE0396C0230493059503A8FDF7CAFEDF
:1050B00018B070BD003802400070004008B5FBF722
:1050C00069FFFFF7A3FFFFF7C5FDFFF7EDFDFFF752
:1050D000DDFEFFF731FF00F0F3FD00F0EFFEFFF71C
:1050E0004FFD00F00DFE0E48FCF756F80D4C204623
:1050F00000F0D0F9204600F099F90B48FFF7CCFDFD
:1051000001210A48FCF7D8FA0028F9D0054800F038
:10511000C7FA4FF400510648FCF7DBFAF0E700BF8E
:1051200008050020F805002050050020000002407E
:10513000000C02407047000010B582B0030E8DF8DD
:105140000430030C8DF80530030A8DF806308DF815
:10515000070001224FF480511448FCF7B4FA144BB5
:105160005C68FDF759FE134BA3FB0030800C104B1D
:105170005B681B1B8342FAD300224FF480510B481B
:10518000FCF7A1FA322304220DEB02010A48FDF7D5
:10519000DCFF0948FEF77CFA0128FAD101224FF41E
:1051A00080510248FCF78FFA02B010BD00040240A3
:1051B000001000E083DE1B430406002000B583B02E
:1051C0000620FFF7B9FF01224FF480510D48FCF78C
:1051D0007AFA4FF47A7304220DEB02010A48FEF7C3
:1051E000A3F99DF804009DF805301B0443EA006311
:1051F0009DF8060043EA00239DF80700184303B01A
:105200005DF804FB000402400406002010B50524EC
:1052100005E0E0B200F0C2FAFFF78EFF013C002C7F
:10522000F7DA10BDF8B52DED048BDFED6E7AB4EE34
:10523000E70AF1EE10FA00F1CF80DFED6B7AB4EE01
:10524000E70AF1EE10FA33D4DFED687AB4EEE70A3C
:10525000F1EE10FA67D4DFED667AB4EEE70AF1EE0C
:1052600010FA62D4DFED637AB4EEE70AF1EE10FAD9
:105270005DD4DFED617AB4EEE70AF1EE10FA58D4AE
:10528000DFED5E7AB4EEE70AF1EE10FA53D4DFED0B
:105290005C7AB4EEE70AF1EE10FA4ED4DFED597AFB
:1052A000B4EEE70AF1EE10FA40F19980002700E031
:1052B00007270D4604467A1E0223934007EE903AD4
:1052C000F8EEE78A28EE808A9FED4F7AC8EE077ADB
:1052D000BCEEE77A17EE103A9EB207EE106AB8EE0F
:1052E000479A77EEC97A9FED497A67EE877A17EE8B
:1052F000900AFBF7D1F841EC100B01F077F851EC74
:10530000100BFBF7BBFB09EE900A012C17D0D4B9A8
:10531000DFED3E7A89EEA78A39EE089A9FED3A8A48
:1053200029EE088A0FE00627C3E70527C1E704270F
:10533000BFE70327BDE70227BBE70127B9E79FEDDA
:10534000328A29EE088A88EE289A012C0AD034B3D2
:10535000EC7285ED019AFFF759FFB0EE490ABDECFA
:10536000048BF8BD012000F01FFA304600F026FA49
:10537000FCEEE97A17EE900A00F02CFA002000F01B
:105380003FFA40F6FF7000F05BFA012000F0C4FA2B
:10539000384600F087FB002000F0DEFBD8E7002055
:1053A00000F002FA304600F009FAFCEEE97A17EE56
:1053B000900A00F00FFA012000F022FA40F6FF7088
:1053C00000F03EFA002000F0A7FA384600F06AFB31
:1053D000012000F0C1FBBBE7BFEE009ABDE7BFEEC6
:1053E000009ABAE70000BC4100803B420080BB420B
:1053F00000803B430080BB4300803B440080BB44B3
:1054000000803B450080BB459A99194200F07F45DA
:1054100010B5044601224FF480710348FCF753F99C
:105420000123237010BD00BF000C024010B50446DC
:10543000012000F073FB01224FF400610448FCF7E7
:1054400042F9012323726372FFF7E0FE10BD00BF33
:10545000000C024010B50446002000F05FFB002263
:105460004FF400610448FCF72EF9002323726372A5
:10547000FFF7CCFE10BD00BF000C024010B5044683
:105480004FF480410248FCF717F9607010BD00BF6F
:105490000010024070B50646FFF7BAFF3046FFF72E
:1054A000D9FF684C00224FF400512046FCF70BF95D
:1054B00000224FF400412046FCF705F900224FF48A
:1054C00080412046FCF7FFF801224FF4805120462E
:1054D000FCF7F9F800F052F9012511E0013C002C2D
:1054E0000ADBE0B200F05AF9FFF726FE052CF5D1F1
:1054F0001420FBF77BFDF1E71420FBF777FD013D5E
:10550000002D01DB0524EAE7002000F04DF95320CF
:1055100000F054F940F2555000F05CF9002000F022
:1055200065F9002000F06CF9002000F073F901200B
:1055300000F07AF940F6FF7000F082F9012000F0E7
:105540008BF9002000F092F90C2000F099F901206D
:1055500000F0AEF9002000F0B5F9012000F0BCF930
:10556000002000F0C5F90F2000F0FEF9002000F047
:10557000D3F9002000F0DAF9012000F0E1F9002071
:1055800000F0E8F9002000F0BDF9002000F0F6F985
:10559000002000F0FDF9002000F004FA012000F0E6
:1055A0000BFA002000F018FA012000F01FFA00208A
:1055B00000F026FA262000F02DFA002000F036FA3E
:1055C000002000F03DFA002000F044FA4FF4407053
:1055D00000F04AFA012000F05BFA062000F062FABF
:1055E000002000F069FA012000F070FA002000F0BD
:1055F00077FA002000F07EFA002000F085FA002003
:1056000000F08CFA002000F093FA002000F09AFAE3
:10561000002000F0A1FA012000F0A8FA00F0B0FA92
:1056200000243472B472FFF7F1FD0A20FBF7DEFCB0
:10563000314620469FED040AFFF7F4FD3046FFF7A0
:105640001DFF70BD000402400000484270B50025F7
:1056500012E0ECB2204600F0A1F80E4E03462A46B6
:105660000D49304601F064FC304600F073FC0A201E
:10567000FBF7BCFC013465B2052DEADDFFF79EFDAA
:10568000044C02460549204601F052FC204600F039
:1056900061FC70BD60040020C4850008D885000846
:1056A00010B5A2B00446002102917C2203A800F0AC
:1056B00023FF284B1B680193274800F04BFC2278FE
:1056C000264902A801F034FC02A800F043FC204661
:1056D000FFF7D4FE6278224902A801F029FC02A853
:1056E00000F038FC6068FAF7D7FE02460B461D4909
:1056F00002A801F01DFC02A800F02CFCE27A1A4975
:1057000002A801F015FC02A800F024FC227A174937
:1057100002A801F00DFC02A800F01CFC627A1449FA
:1057200002A801F005FC02A800F014FCA37A22AA4A
:10573000134413F9842C0F4902A801F0F9FB02A8C5
:1057400000F008FCFFF782FF0B4800F003FC22B0DA
:1057500010BD00BFA8850008EC850008048600087D
:105760001886000828860008448600085C86000821
:10577000708600088486000800860008064B002218
:105780001A6001225A6002229A600322DA608C2297
:105790001A6105225A617047E0040020014B53F85A
:1057A00020007047E0040020034A136823F0004300
:1057B00043EAC07313607047E0040020044A136892
:1057C00023F0FF4323F4FF0343EAC0301060704727
:1057D000E0040020044A136823F4FF4323F0780315
:1057E00043EAC00010607047E0040020034A536899
:1057F00023F0004343EAC07353607047E004002085
:10580000034A536823F0C04343EA40735360704730
:10581000E0040020034A536823F0C05343EAC06306
:1058200053607047E0040020044A536823F0FF638C
:1058300023F4F02343EAC03050607047E0040020B6
:10584000044A536823F4FF4323F0780343EAC0007B
:1058500050607047E0040020034A936823F000433F
:1058600043EAC07393607047E0040020034A9368E2
:1058700023F0C04343EA407393607047E004002084
:1058800010B40A498B6823F0E0524B6923F480235B
:10589000840604F0E05422438A60C008800400F4C7
:1058A0008020184348615DF8044B7047E0040020F5
:1058B000034A936823F0007343EA406393607047A0
:1058C000E0040020034A936823F0807343EA0063F6
:1058D00093607047E0040020044A936823F47F0338
:1058E00023F4404343EA803090607047E004002096
:1058F000034A936823F4005343EA403393607047AC
:10590000E0040020034A936823F0100343EA0013E5
:1059100093607047E0040020034A936823F4807387
:1059200043EA002393607047E0040020034A936831
:1059300023F0800343EAC01393607047E004002023
:10594000034A936823F0400343EA8013936070474F
:10595000E0040020034A936823F0200343EA401345
:1059600093607047E0040020034A936823F4F053E7
:1059700043EA402393607047E0040020034A9368A1
:1059800023F0080343EAC00393607047E00400205B
:10599000034AD36823F07C4343EA8063D3607047B3
:1059A000E0040020034AD36823F0007343EA406315
:1059B000D3607047E0040020064AD16821F080716E
:1059C000D160536923F0C04343EA407343EA8070D7
:1059D00050617047E0040020034AD36823F4802319
:1059E00043EA8043D3607047E0040020034AD36851
:1059F00023F4003343EA4043D3607047E0040020BF
:105A0000034AD36823F4C03343EAC033D3607047FA
:105A1000E0040020044AD36823F4FF4323F0780312
:105A200043EAC000D0607047E0040020034A1369D5
:105A300023F0805343EA007313617047E0040020B1
:105A4000034A136923F0006343EAC063136170479C
:105A5000E0040020034A136923F0806343EA806373
:105A600013617047E004002008490B6923F0437379
:105A700023F47C33020A120602F04072134300033F
:105A800000F47F2003430B61704700BFE004002057
:105A9000034A136923F4000343EAC05313617047B8
:105AA000E0040020034A136923F4E00343EA0053AF
:105AB00013617047E0040020034A136923F4006374
:105AC00043EAC02313617047E0040020034A1369CE
:105AD00023F4806343EA802313617047E0040020CD
